:100000000C942A000C949F020C94C6020C94ED02EE
:100010000C9447000C9447000C9447000C94470044
:100020000C9447000C9447000C94BD030C94E4031B
:100030000C9447000C9447000C9447000C94470024
:100040000C9480000C9447000C9447000C946904B5
:100050000C94470011241FBECFE5D8E0DEBFCDBF12
:1000600010E0A0E6B0E0E6EFFCE002C005900D92E3
:10007000A236B107D9F710E0A2E6B0E001C01D92A8
:10008000AA37B107E1F70E9419060C9479060C947F
:1000900000003E983F983D9A3098319832983598B4
:1000A00080B78F7D80BF80B78F7B80BF80B78F7711
:1000B00080BF379A0895379A089537980895369AE9
:1000C000089586B18295869586958170089597B139
:1000D000907E97B997B18F71892B87B9369A3699E7
:1000E000FECF85B10895359A089535980895339ACD
:1000F00008953398089590936D0080936C0008954F
:100100001F920F920FB60F9211242F933F934F938C
:100110005F936F937F938F939F93AF93BF93EF936F
:10012000FF93E0916C00F0916D000995FF91EF91C4
:10013000BF91AF919F918F917F916F915F914F91FF
:100140003F912F910F900FBE0F901F901895843004
:1001500008F07FC0683008F07CC0813031F1813018
:1001600038F0823009F43EC0833009F072C056C0C6
:10017000442321F0413009F06CC00CC02AB381E067
:1001800090E002C0880F991F6A95E2F7809582235C
:100190008ABB08952AB381E090E002C0880F991FBE
:1001A0006A95E2F7282B2ABB0895442321F04130B9
:1001B00009F04FC00CC027B381E090E002C0880F67
:1001C000991F6A95E2F78095822387BB089527B32C
:1001D00081E090E002C0880F991F6A95E2F7282B12
:1001E00027BB0895442319F0413099F50CC024B37E
:1001F00081E090E002C0880F991F6A95E2F7809530
:10020000822384BB089524B381E090E002C0880F6C
:10021000991F6A95E2F7282B24BB0895442319F00F
:100220004130B9F40CC021B381E090E002C0880FE6
:10023000991F6A95E2F78095822381BB089521B3C7
:1002400081E090E002C0880F991F6A95E2F7282BA1
:1002500021BB0895843008F07FC0683008F07CC06E
:10026000813031F1813038F0823009F43EC0833082
:1002700009F072C056C0442321F0413009F06CC02F
:100280000CC02BB381E090E002C0880F991F6A95E3
:10029000E2F7809582238BBB08952BB381E090E039
:1002A00002C0880F991F6A95E2F7282B2BBB08958F
:1002B000442321F0413009F04FC00CC028B381E045
:1002C00090E002C0880F991F6A95E2F7809582231B
:1002D00088BB089528B381E090E002C0880F991F81
:1002E0006A95E2F7282B28BB0895442319F0413082
:1002F00099F50CC025B381E090E002C0880F991FEA
:100300006A95E2F78095822385BB089525B381E045
:1003100090E002C0880F991F6A95E2F7282B25BB51
:100320000895442319F04130B9F40CC022B381E0A0
:1003300090E002C0880F991F6A95E2F780958223AA
:1003400082BB089522B381E090E002C0880F991F1C
:100350006A95E2F7282B22BB08958430D0F46830E8
:10036000C0F4813049F0813028F0823039F0833098
:1003700089F406C089B305C086B303C083B301C046
:1003800080B390E002C0959587956A95E2F78170F9
:10039000089580E008958430B0F56830A0F581308C
:1003A00091F0813028F08230C9F0833061F521C0AE
:1003B0002BB381E090E002C0880F991F6A95E2F7A5
:1003C00028272BBB089528B381E090E002C0880F56
:1003D000991F6A95E2F7282728BB089525B381E085
:1003E00090E002C0880F991F6A95E2F7282725BB85
:1003F000089522B381E090E002C0880F991F6A95AA
:10040000E2F7282722BB0895843080F4813049F038
:10041000813028F0823039F0833041F406C06BBB64
:10042000089568BB089565BB089562BB08950F9356
:100430001F938C010E9410048823E9F01F70110F94
:10044000106A812F0E942D048823A9F0802F0E941A
:100450003B04882381F00E942004882361F0812FCF
:100460008F5F0E944904882331F00E945704182F9F
:100470000E941D0401C010E0812F1F910F9108956B
:10048000FF920F931F938C01F62E0E941004882375
:10049000A1F01370110F812F806A0E942D04882310
:1004A00061F0802F0E943B04882339F08F2D0E9439
:1004B0003B04882311F00E941D041F910F91FF90AF
:1004C000089585B7816085BF85B7826085BF08952F
:1004D000833088F4813041F0813018F0823059F453
:1004E00007C08BB7806402C08BB780688BBF08954C
:1004F0008BB780628BBF0895833088F4813041F0E0
:10050000813018F0823059F407C08BB78F7B02C05E
:100510008BB78F778BBF08958BB78F7D8BBF089577
:10052000909371008093700008959093730080936E
:100530007200089590936F0080936E0008951F924B
:100540000F920FB60F9211242F933F934F935F9307
:100550006F937F938F939F93AF93BF93EF93FF938B
:10056000E0917000F09171000995FF91EF91BF91BA
:10057000AF919F918F917F916F915F914F913F913B
:100580002F910F900FBE0F901F9018951F920F92F2
:100590000FB60F9211242F933F934F935F936F9356
:1005A0007F938F939F93AF93BF93EF93FF93E091CC
:1005B0007200F09173000995FF91EF91BF91AF9197
:1005C0009F918F917F916F915F914F913F912F916B
:1005D0000F900FBE0F901F9018951F920F920FB69D
:1005E0000F9211242F933F934F935F936F937F93B9
:1005F0008F939F93AF93BF93EF93FF93E0916E0020
:10060000F0916F000995FF91EF91BF91AF919F918C
:100610008F917F916F915F914F913F912F910F90AB
:100620000FBE0F901F9018958FB780688FBF0895E9
:100630008FB78F778FBF089580E061E040E00E9420
:100640002A0180E062E040E00E942A0108951F93A1
:10065000182F80E061E041E00E942A0180E062E022
:1006600040E00E942A01812F6AE00E945906682F0B
:100670006295607F81E00E94040284EF91E028ECA3
:1006800030E0F9013197F1F70197D9F780E062E0A6
:1006900041E00E942A0180E061E040E00E942A01DE
:1006A000812F6AE00E9459069295907F81E0692F20
:1006B0000E94040284EF91E028EC30E0F9013197C8
:1006C000F1F70197D9F780E062E040E00E942A014B
:1006D0001F91089581E064E041E00E94A70081E05D
:1006E00065E041E00E94A70081E066E041E00E94F1
:1006F000A70081E067E041E00E94A70080E061E0A0
:1007000041E00E94A70080E062E041E00E94A70073
:10071000089583B78E7F83BF83B78D7F83BF83B7F1
:10072000846083BF83B78F7B83BF83B7877F83BF9B
:1007300083B78F7E83BF83B78F7D83BF089582BFCA
:1007400008958CBF089589B7816089BF089589B7DE
:100750008E7F89BF089589B7826089BF089589B760
:100760008D7F89BF089590937500809374000895DC
:10077000909377008093760008951F920F920FB6A2
:100780000F9211242F933F934F935F936F937F9317
:100790008F939F93AF93BF93EF93FF93E091740078
:1007A000F09175000995FF91EF91BF91AF919F91E5
:1007B0008F917F916F915F914F913F912F910F900A
:1007C0000FBE0F901F9018951F920F920FB60F92A9
:1007D00011242F933F934F935F936F937F938F9346
:1007E0009F93AF93BF93EF93FF93E0917600F091C7
:1007F00077000995FF91EF91BF91AF919F918F91F4
:100800007F916F915F914F913F912F910F900FBE0C
:100810000F901F901895089A099A84E080B908955E
:1008200084EA86BF06B607FEFDCF81B190E0887FDF
:10083000883009F491E0892F089584E986BF0895EE
:1008400084EA86BF06B607FEFDCF81B190E0887FBF
:10085000803109F491E0892F089583B984EC86BF33
:1008600006B607FEFDCF81B190E0887F883109F49C
:1008700091E0892F089583B984EC86BF06B607FE00
:10088000FDCF81B190E0887F883209F491E0892F13
:10089000089583B984EC86BF06B607FEFDCF81B10B
:1008A00090E0887F803409F491E0892F089584ECEA
:1008B00086BF06B607FEFDCF81B1887F803511F077
:1008C00080E0089583B10895909379008093780033
:1008D00008951F920F920FB60F9211242F933F93FA
:1008E0004F935F936F937F938F939F93AF93BF9338
:1008F000EF93FF93E0917800F09179000995FF91D3
:10090000EF91BF91AF919F918F917F916F915F9187
:100910004F913F912F910F900FBE0F901F90189500
:10092000109260000895809164008F5F809364004E
:100930008B3781F48091620091E089278093620077
:10094000809163008F5F809363001092640084EB5A
:100950000E949F030895CF93DF930E94A70383E92A
:1009600094E00E94B80384EB0E949F030E94A303BB
:10097000C8ECD0E080916300853039F40E94A70371
:1009800010926300DF91CF910895809162008823D7
:1009900021F0809165000E94270380E066E00E94BC
:1009A000AD018823C1F4809165008B34A0F488E800
:1009B00093E1FE013197F1F70197D9F710926300A7
:1009C000809165008B5F809365006091650081E098
:1009D00090E00E94400280E067E00E94AD01882321
:1009E00049F680916500843228F288E893E1FE019F
:1009F0003197F1F70197D9F7109263008091650064
:100A00008550809365006091650081E090E00E94D0
:100A10004002B0CF0F931F9380916A008F5F809345
:100A20006A008D3051F5009166001091670080E0FA
:100A30000E94670002531040080F111D10936700B9
:100A400000936600809168008F5F809368009091AA
:100A50006B009F5F90936B0080916900882341F445
:100A60009A3031F482E067E00E94CB0110926B0073
:100A700010926A008BEC0E949F031F910F910895C2
:100A800083E067E041E00E942A0183E066E040E005
:100A90000E942A0182E067E041E00E942A0181E091
:100AA00080936900089583E066E041E00E942A0196
:100AB00083E067E040E00E942A01109269000895F7
:100AC00083E067E040E00E942A0183E066E040E0C6
:100AD0000E942A0182E067E040E00E942A0182E051
:100AE00080936900089581E0809360000E94A703CD
:100AF0000E941C0383E066E040E00E942A0183E03C
:100B000067E040E00E942A0182E067E040E00E9446
:100B10002A0181E090E00E941702982F83528932C7
:100B200020F08CE38093650002C090936500809173
:100B300060008823E1F70E949E050895CF93DF931C
:100B40000E94A7038AE095E00E94B8038BEC0E9404
:100B50009F030E94A30381E080936000C8ECD0E073
:100B60005EC0809165000E94270380E066E00E94DD
:100B7000AD01882319F488E893E107C080E067E0BD
:100B80000E94AD018823B9F310C0FE013197F1F73F
:100B90000197D9F70E94AB048AE095E00E94B80360
:100BA0008BEC0E949F030E94A303809168008A300F
:100BB000B1F580916600909167006AE070E00E9454
:100BC000650670936700609366002091660030911F
:100BD00067008091650090E005972817390748F471
:100BE0001092670010926600109268000E945305F0
:100BF00016C020916600309167008091650090E0FA
:100C000005968217930748F41092670010926600C9
:100C1000109268000E94400502C00E946005809109
:100C20006000882309F09DCF0E947305DF91CF916A
:100C300008950E9449000E940B040E9489030E94AB
:100C40006A030E9461020E94140383E066E041E0AF
:100C50000E94A70083E067E041E00E94A70082E0D5
:100C600067E041E00E94A70080E066E040E00E946B
:100C7000A70080E067E040E00E94A70083E060E01A
:100C800041E00E94A70080E066E041E00E942A0166
:100C900080E067E041E00E942A0180E00E94680253
:100CA00080E994E00E9490020E94730580E090E049
:100CB0000895991B79E004C0991F961708F0961BB8
:100CC000881F7A95C9F780950895AA1BBB1B51E12F
:100CD00007C0AA1FBB1FA617B70710F0A61BB70BAC
:100CE000881F991F5A95A9F780959095BC01CD0151
:060CF0000895F894FFCF07
:020CF6000100FB
:00000001FF
